{
  "contractName": "MintableERC1155",
  "abi": [
    {
      "anonymous": false,
      "inputs": [
        {
          "indexed": false,
          "internalType": "address",
          "name": "previousAdmin",
          "type": "address"
        },
        {
          "indexed": false,
          "internalType": "address",
          "name": "newAdmin",
          "type": "address"
        }
      ],
      "name": "AdminChanged",
      "type": "event"
    },
    {
      "anonymous": false,
      "inputs": [
        {
          "indexed": true,
          "internalType": "address",
          "name": "account",
          "type": "address"
        },
        {
          "indexed": true,
          "internalType": "address",
          "name": "operator",
          "type": "address"
        },
        {
          "indexed": false,
          "internalType": "bool",
          "name": "approved",
          "type": "bool"
        }
      ],
      "name": "ApprovalForAll",
      "type": "event"
    },
    {
      "anonymous": false,
      "inputs": [
        {
          "indexed": true,
          "internalType": "address",
          "name": "beacon",
          "type": "address"
        }
      ],
      "name": "BeaconUpgraded",
      "type": "event"
    },
    {
      "anonymous": false,
      "inputs": [
        {
          "indexed": true,
          "internalType": "address",
          "name": "previousOwner",
          "type": "address"
        },
        {
          "indexed": true,
          "internalType": "address",
          "name": "newOwner",
          "type": "address"
        }
      ],
      "name": "OwnershipTransferred",
      "type": "event"
    },
    {
      "anonymous": false,
      "inputs": [
        {
          "indexed": true,
          "internalType": "address",
          "name": "operator",
          "type": "address"
        },
        {
          "indexed": true,
          "internalType": "address",
          "name": "from",
          "type": "address"
        },
        {
          "indexed": true,
          "internalType": "address",
          "name": "to",
          "type": "address"
        },
        {
          "indexed": false,
          "internalType": "uint256[]",
          "name": "ids",
          "type": "uint256[]"
        },
        {
          "indexed": false,
          "internalType": "uint256[]",
          "name": "values",
          "type": "uint256[]"
        }
      ],
      "name": "TransferBatch",
      "type": "event"
    },
    {
      "anonymous": false,
      "inputs": [
        {
          "indexed": true,
          "internalType": "address",
          "name": "operator",
          "type": "address"
        },
        {
          "indexed": true,
          "internalType": "address",
          "name": "from",
          "type": "address"
        },
        {
          "indexed": true,
          "internalType": "address",
          "name": "to",
          "type": "address"
        },
        {
          "indexed": false,
          "internalType": "uint256",
          "name": "id",
          "type": "uint256"
        },
        {
          "indexed": false,
          "internalType": "uint256",
          "name": "value",
          "type": "uint256"
        }
      ],
      "name": "TransferSingle",
      "type": "event"
    },
    {
      "anonymous": false,
      "inputs": [
        {
          "indexed": false,
          "internalType": "string",
          "name": "value",
          "type": "string"
        },
        {
          "indexed": true,
          "internalType": "uint256",
          "name": "id",
          "type": "uint256"
        }
      ],
      "name": "URI",
      "type": "event"
    },
    {
      "anonymous": false,
      "inputs": [
        {
          "indexed": true,
          "internalType": "address",
          "name": "implementation",
          "type": "address"
        }
      ],
      "name": "Upgraded",
      "type": "event"
    },
    {
      "inputs": [
        {
          "internalType": "address",
          "name": "account",
          "type": "address"
        },
        {
          "internalType": "uint256",
          "name": "id",
          "type": "uint256"
        }
      ],
      "name": "balanceOf",
      "outputs": [
        {
          "internalType": "uint256",
          "name": "",
          "type": "uint256"
        }
      ],
      "stateMutability": "view",
      "type": "function",
      "constant": true
    },
    {
      "inputs": [
        {
          "internalType": "address[]",
          "name": "accounts",
          "type": "address[]"
        },
        {
          "internalType": "uint256[]",
          "name": "ids",
          "type": "uint256[]"
        }
      ],
      "name": "balanceOfBatch",
      "outputs": [
        {
          "internalType": "uint256[]",
          "name": "",
          "type": "uint256[]"
        }
      ],
      "stateMutability": "view",
      "type": "function",
      "constant": true
    },
    {
      "inputs": [
        {
          "internalType": "uint256",
          "name": "",
          "type": "uint256"
        }
      ],
      "name": "creators",
      "outputs": [
        {
          "internalType": "address",
          "name": "",
          "type": "address"
        }
      ],
      "stateMutability": "view",
      "type": "function",
      "constant": true
    },
    {
      "inputs": [
        {
          "internalType": "address",
          "name": "account",
          "type": "address"
        },
        {
          "internalType": "address",
          "name": "operator",
          "type": "address"
        }
      ],
      "name": "isApprovedForAll",
      "outputs": [
        {
          "internalType": "bool",
          "name": "",
          "type": "bool"
        }
      ],
      "stateMutability": "view",
      "type": "function",
      "constant": true
    },
    {
      "inputs": [
        {
          "internalType": "uint256",
          "name": "",
          "type": "uint256"
        }
      ],
      "name": "maxTokenSupply",
      "outputs": [
        {
          "internalType": "uint256",
          "name": "",
          "type": "uint256"
        }
      ],
      "stateMutability": "view",
      "type": "function",
      "constant": true
    },
    {
      "inputs": [],
      "name": "name",
      "outputs": [
        {
          "internalType": "string",
          "name": "",
          "type": "string"
        }
      ],
      "stateMutability": "view",
      "type": "function",
      "constant": true
    },
    {
      "inputs": [],
      "name": "owner",
      "outputs": [
        {
          "internalType": "address",
          "name": "",
          "type": "address"
        }
      ],
      "stateMutability": "view",
      "type": "function",
      "constant": true
    },
    {
      "inputs": [],
      "name": "proxiableUUID",
      "outputs": [
        {
          "internalType": "bytes32",
          "name": "",
          "type": "bytes32"
        }
      ],
      "stateMutability": "view",
      "type": "function",
      "constant": true
    },
    {
      "inputs": [],
      "name": "renounceOwnership",
      "outputs": [],
      "stateMutability": "nonpayable",
      "type": "function"
    },
    {
      "inputs": [
        {
          "internalType": "address",
          "name": "from",
          "type": "address"
        },
        {
          "internalType": "address",
          "name": "to",
          "type": "address"
        },
        {
          "internalType": "uint256[]",
          "name": "ids",
          "type": "uint256[]"
        },
        {
          "internalType": "uint256[]",
          "name": "amounts",
          "type": "uint256[]"
        },
        {
          "internalType": "bytes",
          "name": "data",
          "type": "bytes"
        }
      ],
      "name": "safeBatchTransferFrom",
      "outputs": [],
      "stateMutability": "nonpayable",
      "type": "function"
    },
    {
      "inputs": [
        {
          "internalType": "address",
          "name": "from",
          "type": "address"
        },
        {
          "internalType": "address",
          "name": "to",
          "type": "address"
        },
        {
          "internalType": "uint256",
          "name": "id",
          "type": "uint256"
        },
        {
          "internalType": "uint256",
          "name": "amount",
          "type": "uint256"
        },
        {
          "internalType": "bytes",
          "name": "data",
          "type": "bytes"
        }
      ],
      "name": "safeTransferFrom",
      "outputs": [],
      "stateMutability": "nonpayable",
      "type": "function"
    },
    {
      "inputs": [
        {
          "internalType": "address",
          "name": "operator",
          "type": "address"
        },
        {
          "internalType": "bool",
          "name": "approved",
          "type": "bool"
        }
      ],
      "name": "setApprovalForAll",
      "outputs": [],
      "stateMutability": "nonpayable",
      "type": "function"
    },
    {
      "inputs": [
        {
          "internalType": "bytes4",
          "name": "interfaceId",
          "type": "bytes4"
        }
      ],
      "name": "supportsInterface",
      "outputs": [
        {
          "internalType": "bool",
          "name": "",
          "type": "bool"
        }
      ],
      "stateMutability": "view",
      "type": "function",
      "constant": true
    },
    {
      "inputs": [],
      "name": "symbol",
      "outputs": [
        {
          "internalType": "string",
          "name": "",
          "type": "string"
        }
      ],
      "stateMutability": "view",
      "type": "function",
      "constant": true
    },
    {
      "inputs": [
        {
          "internalType": "uint256",
          "name": "",
          "type": "uint256"
        }
      ],
      "name": "tokenPrice",
      "outputs": [
        {
          "internalType": "uint256",
          "name": "",
          "type": "uint256"
        }
      ],
      "stateMutability": "view",
      "type": "function",
      "constant": true
    },
    {
      "inputs": [
        {
          "internalType": "uint256",
          "name": "",
          "type": "uint256"
        }
      ],
      "name": "tokenSupply",
      "outputs": [
        {
          "internalType": "uint256",
          "name": "",
          "type": "uint256"
        }
      ],
      "stateMutability": "view",
      "type": "function",
      "constant": true
    },
    {
      "inputs": [
        {
          "internalType": "address",
          "name": "newOwner",
          "type": "address"
        }
      ],
      "name": "transferOwnership",
      "outputs": [],
      "stateMutability": "nonpayable",
      "type": "function"
    },
    {
      "inputs": [
        {
          "internalType": "address",
          "name": "newImplementation",
          "type": "address"
        }
      ],
      "name": "upgradeTo",
      "outputs": [],
      "stateMutability": "nonpayable",
      "type": "function"
    },
    {
      "inputs": [
        {
          "internalType": "address",
          "name": "newImplementation",
          "type": "address"
        },
        {
          "internalType": "bytes",
          "name": "data",
          "type": "bytes"
        }
      ],
      "name": "upgradeToAndCall",
      "outputs": [],
      "stateMutability": "payable",
      "type": "function",
      "payable": true
    },
    {
      "inputs": [
        {
          "internalType": "string",
          "name": "uri_",
          "type": "string"
        },
        {
          "internalType": "string",
          "name": "name_",
          "type": "string"
        },
        {
          "internalType": "string",
          "name": "symbol_",
          "type": "string"
        }
      ],
      "name": "initialize",
      "outputs": [],
      "stateMutability": "nonpayable",
      "type": "function"
    },
    {
      "inputs": [
        {
          "internalType": "uint256",
          "name": "_id",
          "type": "uint256"
        }
      ],
      "name": "uri",
      "outputs": [
        {
          "internalType": "string",
          "name": "",
          "type": "string"
        }
      ],
      "stateMutability": "view",
      "type": "function",
      "constant": true
    },
    {
      "inputs": [
        {
          "internalType": "uint256",
          "name": "_id",
          "type": "uint256"
        }
      ],
      "name": "totalSupply",
      "outputs": [
        {
          "internalType": "uint256",
          "name": "",
          "type": "uint256"
        }
      ],
      "stateMutability": "view",
      "type": "function",
      "constant": true
    },
    {
      "inputs": [
        {
          "internalType": "uint256",
          "name": "_id",
          "type": "uint256"
        },
        {
          "internalType": "bytes",
          "name": "_data",
          "type": "bytes"
        }
      ],
      "name": "mintMembership",
      "outputs": [],
      "stateMutability": "payable",
      "type": "function",
      "payable": true
    },
    {
      "inputs": [
        {
          "internalType": "address",
          "name": "_to",
          "type": "address"
        },
        {
          "internalType": "uint256",
          "name": "_id",
          "type": "uint256"
        },
        {
          "internalType": "uint256",
          "name": "_quantity",
          "type": "uint256"
        },
        {
          "internalType": "bytes",
          "name": "_data",
          "type": "bytes"
        }
      ],
      "name": "mint",
      "outputs": [],
      "stateMutability": "nonpayable",
      "type": "function"
    },
    {
      "inputs": [
        {
          "internalType": "uint256",
          "name": "_maxTokenSupply",
          "type": "uint256"
        },
        {
          "internalType": "uint256",
          "name": "_tokenPrice",
          "type": "uint256"
        },
        {
          "internalType": "bytes",
          "name": "_data",
          "type": "bytes"
        }
      ],
      "name": "create",
      "outputs": [
        {
          "internalType": "uint256",
          "name": "",
          "type": "uint256"
        }
      ],
      "stateMutability": "nonpayable",
      "type": "function"
    },
    {
      "inputs": [
        {
          "internalType": "address",
          "name": "_to",
          "type": "address"
        },
        {
          "internalType": "uint256[]",
          "name": "_ids",
          "type": "uint256[]"
        }
      ],
      "name": "setCreator",
      "outputs": [],
      "stateMutability": "nonpayable",
      "type": "function"
    },
    {
      "inputs": [],
      "name": "withdraw",
      "outputs": [],
      "stateMutability": "nonpayable",
      "type": "function"
    },
    {
      "inputs": [],
      "name": "contractURI",
      "outputs": [
        {
          "internalType": "string",
          "name": "",
          "type": "string"
        }
      ],
      "stateMutability": "pure",
      "type": "function",
      "constant": true
    }
  ],
  "bytecode": "0x60a06040523073ffffffffffffffffffffffffffffffffffffffff1660809073ffffffffffffffffffffffffffffffffffffffff1681525034801561004357600080fd5b506080516157346200007c60003960008181610b6301528181610bf101528181610f4e01528181610fdc015261108c01526157346000f3fe6080604052600436106101b65760003560e01c8063731133e9116100ec578063cd53d08e1161008a578063e8a3d48511610064578063e8a3d48514610625578063e985e9c514610650578063f242432a1461068d578063f2fde38b146106b6576101b6565b8063cd53d08e14610582578063d2a6b51a146105bf578063d4ddce8a146105e8576101b6565b8063a22cb465116100c6578063a22cb465146104d7578063a6487c5314610500578063bd85b03914610529578063bdff75d314610566576101b6565b8063731133e9146104585780638da5cb5b1461048157806395d89b41146104ac576101b6565b80633659cfe6116101595780634e1273f4116101335780634e1273f4146103bd5780634f1ef286146103fa57806352d1902d14610416578063715018a614610441576101b6565b80633659cfe61461034057806336f5cba5146103695780633ccfd60b146103a6576101b6565b806306fdde031161019557806306fdde03146102725780630e89341c1461029d5780632693ebf2146102da5780632eb2c2d614610317576101b6565b8062fdd58e146101bb57806301ffc9a7146101f857806306f9363c14610235575b600080fd5b3480156101c757600080fd5b506101e260048036038101906101dd9190613454565b6106df565b6040516101ef91906134a3565b60405180910390f35b34801561020457600080fd5b5061021f600480360381019061021a9190613516565b6107a8565b60405161022c919061355e565b60405180910390f35b34801561024157600080fd5b5061025c600480360381019061025791906135de565b61088a565b60405161026991906134a3565b60405180910390f35b34801561027e57600080fd5b5061028761099b565b60405161029491906136eb565b60405180910390f35b3480156102a957600080fd5b506102c460048036038101906102bf919061370d565b610a2a565b6040516102d191906136eb565b60405180910390f35b3480156102e657600080fd5b5061030160048036038101906102fc919061370d565b610aa7565b60405161030e91906134a3565b60405180910390f35b34801561032357600080fd5b5061033e6004803603810190610339919061392d565b610ac0565b005b34801561034c57600080fd5b50610367600480360381019061036291906139fc565b610b61565b005b34801561037557600080fd5b50610390600480360381019061038b919061370d565b610ce9565b60405161039d91906134a3565b60405180910390f35b3480156103b257600080fd5b506103bb610d02565b005b3480156103c957600080fd5b506103e460048036038101906103df9190613aec565b610e33565b6040516103f19190613c22565b60405180910390f35b610414600480360381019061040f9190613c44565b610f4c565b005b34801561042257600080fd5b5061042b611088565b6040516104389190613cb9565b60405180910390f35b34801561044d57600080fd5b50610456611141565b005b34801561046457600080fd5b5061047f600480360381019061047a9190613cd4565b6111c9565b005b34801561048d57600080fd5b506104966112be565b6040516104a39190613d66565b60405180910390f35b3480156104b857600080fd5b506104c16112e8565b6040516104ce91906136eb565b60405180910390f35b3480156104e357600080fd5b506104fe60048036038101906104f99190613dad565b611377565b005b34801561050c57600080fd5b5061052760048036038101906105229190613e8e565b61138d565b005b34801561053557600080fd5b50610550600480360381019061054b919061370d565b6114cf565b60405161055d91906134a3565b60405180910390f35b610580600480360381019061057b9190613f35565b6114ed565b005b34801561058e57600080fd5b506105a960048036038101906105a4919061370d565b611768565b6040516105b69190613d66565b60405180910390f35b3480156105cb57600080fd5b506105e660048036038101906105e19190613f91565b61179c565b005b3480156105f457600080fd5b5061060f600480360381019061060a919061370d565b611859565b60405161061c91906134a3565b60405180910390f35b34801561063157600080fd5b5061063a611872565b60405161064791906136eb565b60405180910390f35b34801561065c57600080fd5b5061067760048036038101906106729190613fed565b6118af565b604051610684919061355e565b60405180910390f35b34801561069957600080fd5b506106b460048036038101906106af919061402d565b611943565b005b3480156106c257600080fd5b506106dd60048036038101906106d891906139fc565b6119e4565b005b60008073ffffffffffffffffffffffffffffffffffffffff168373ffffffffffffffffffffffffffffffffffffffff160361074f576040517f08c379a000000000000000000000000000000000000000000000000000000000815260040161074690614136565b60405180910390fd5b6065600083815260200190815260200160002060008473ffffffffffffffffffffffffffffffffffffffff1673ffffffffffffffffffffffffffffffffffffffff16815260200190815260200160002054905092915050565b60007fd9b67a26000000000000000000000000000000000000000000000000000000007bffffffffffffffffffffffffffffffffffffffffffffffffffffffff1916827bffffffffffffffffffffffffffffffffffffffffffffffffffffffff1916148061087357507f0e89341c000000000000000000000000000000000000000000000000000000007bffffffffffffffffffffffffffffffffffffffffffffffffffffffff1916827bffffffffffffffffffffffffffffffffffffffffffffffffffffffff1916145b80610883575061088282611adb565b5b9050919050565b600080610895611b45565b905061089f611b63565b33610131600083815260200190815260200160002060006101000a81548173ffffffffffffffffffffffffffffffffffffffff021916908373ffffffffffffffffffffffffffffffffffffffff16021790555085610133600083815260200190815260200160002081905550846101346000838152602001908152602001600020819055506109753382600187878080601f016020809104026020016040519081016040528093929190818152602001838380828437600081840152601f19601f82011690508083019250505050505050611b7e565b600161013260008381526020019081526020016000208190555080915050949350505050565b61012d80546109a990614185565b80601f01602080910402602001604051908101604052809291908181526020018280546109d590614185565b8015610a225780601f106109f757610100808354040283529160200191610a22565b820191906000526020600020905b815481529060010190602001808311610a0557829003601f168201915b505050505081565b6060610a3582611d14565b610a74576040517f08c379a0000000000000000000000000000000000000000000000000000000008152600401610a6b90614202565b60405180910390fd5b61012f610a8083611d81565b604051602001610a9192919061433e565b6040516020818303038152906040529050919050565b6101326020528060005260406000206000915090505481565b610ac8611ee1565b73ffffffffffffffffffffffffffffffffffffffff168573ffffffffffffffffffffffffffffffffffffffff161480610b0e5750610b0d85610b08611ee1565b6118af565b5b610b4d576040517f08c379a0000000000000000000000000000000000000000000000000000000008152600401610b44906143df565b60405180910390fd5b610b5a8585858585611ee9565b5050505050565b7f000000000000000000000000000000000000000000000000000000000000000073ffffffffffffffffffffffffffffffffffffffff163073ffffffffffffffffffffffffffffffffffffffff1603610bef576040517f08c379a0000000000000000000000000000000000000000000000000000000008152600401610be690614471565b60405180910390fd5b7f000000000000000000000000000000000000000000000000000000000000000073ffffffffffffffffffffffffffffffffffffffff16610c2e6121ff565b73ffffffffffffffffffffffffffffffffffffffff1614610c84576040517f08c379a0000000000000000000000000000000000000000000000000000000008152600401610c7b90614503565b60405180910390fd5b610c8d81612256565b610ce681600067ffffffffffffffff811115610cac57610cab61373a565b5b6040519080825280601f01601f191660200182016040528015610cde5781602001600182028036833780820191505090505b5060006122d5565b50565b6101336020528060005260406000206000915090505481565b610d0a611ee1565b73ffffffffffffffffffffffffffffffffffffffff16610d286112be565b73ffffffffffffffffffffffffffffffffffffffff1614610d7e576040517f08c379a0000000000000000000000000000000000000000000000000000000008152600401610d759061456f565b60405180910390fd5b600047905060003373ffffffffffffffffffffffffffffffffffffffff1682604051610da9906145c0565b60006040518083038185875af1925050503d8060008114610de6576040519150601f19603f3d011682016040523d82523d6000602084013e610deb565b606091505b5050905080610e2f576040517f08c379a0000000000000000000000000000000000000000000000000000000008152600401610e2690614621565b60405180910390fd5b5050565b60608151835114610e79576040517f08c379a0000000000000000000000000000000000000000000000000000000008152600401610e70906146b3565b60405180910390fd5b6000835167ffffffffffffffff811115610e9657610e9561373a565b5b604051908082528060200260200182016040528015610ec45781602001602082028036833780820191505090505b50905060005b8451811015610f4157610f11858281518110610ee957610ee86146d3565b5b6020026020010151858381518110610f0457610f036146d3565b5b60200260200101516106df565b828281518110610f2457610f236146d3565b5b60200260200101818152505080610f3a90614731565b9050610eca565b508091505092915050565b7f000000000000000000000000000000000000000000000000000000000000000073ffffffffffffffffffffffffffffffffffffffff163073ffffffffffffffffffffffffffffffffffffffff1603610fda576040517f08c379a0000000000000000000000000000000000000000000000000000000008152600401610fd190614471565b60405180910390fd5b7f000000000000000000000000000000000000000000000000000000000000000073ffffffffffffffffffffffffffffffffffffffff166110196121ff565b73ffffffffffffffffffffffffffffffffffffffff161461106f576040517f08c379a000000000000000000000000000000000000000000000000000000000815260040161106690614503565b60405180910390fd5b61107882612256565b611084828260016122d5565b5050565b60007f000000000000000000000000000000000000000000000000000000000000000073ffffffffffffffffffffffffffffffffffffffff163073ffffffffffffffffffffffffffffffffffffffff1614611118576040517f08c379a000000000000000000000000000000000000000000000000000000000815260040161110f906147eb565b60405180910390fd5b7f360894a13ba1a3210667c828492db98dca3e2076cc3735a920a3ca505d382bbc60001b905090565b611149611ee1565b73ffffffffffffffffffffffffffffffffffffffff166111676112be565b73ffffffffffffffffffffffffffffffffffffffff16146111bd576040517f08c379a00000000000000000000000000000000000000000000000000000000081526004016111b49061456f565b60405180910390fd5b6111c76000612443565b565b823373ffffffffffffffffffffffffffffffffffffffff16610131600083815260200190815260200160002060009054906101000a900473ffffffffffffffffffffffffffffffffffffffff1673ffffffffffffffffffffffffffffffffffffffff161461126c576040517f08c379a000000000000000000000000000000000000000000000000000000000815260040161126390614857565b60405180910390fd5b61127885858585611b7e565b61129f8361013260008781526020019081526020016000205461250990919063ffffffff16565b6101326000868152602001908152602001600020819055505050505050565b6000609760009054906101000a900473ffffffffffffffffffffffffffffffffffffffff16905090565b61012e80546112f690614185565b80601f016020809104026020016040519081016040528092919081815260200182805461132290614185565b801561136f5780601f106113445761010080835404028352916020019161136f565b820191906000526020600020905b81548152906001019060200180831161135257829003601f168201915b505050505081565b611389611382611ee1565b838361251f565b5050565b600060019054906101000a900460ff166113b55760008054906101000a900460ff16156113be565b6113bd61268b565b5b6113fd576040517f08c379a00000000000000000000000000000000000000000000000000000000081526004016113f4906148e9565b60405180910390fd5b60008060019054906101000a900460ff16159050801561144d576001600060016101000a81548160ff02191690831515021790555060016000806101000a81548160ff0219169083151502179055505b6114568461269c565b61145e6126f7565b611466612750565b8261012d908051906020019061147d929190613309565b508161012e9080519060200190611495929190613309565b506000610130819055506114a8846127a1565b80156114c95760008060016101000a81548160ff0219169083151502179055505b50505050565b60006101326000838152602001908152602001600020549050919050565b6114f682611d14565b611535576040517f08c379a000000000000000000000000000000000000000000000000000000000815260040161152c90614202565b60405180910390fd5b60006101336000848152602001908152602001600020549050600061013260008581526020019081526020016000205490508181106115a9576040517f08c379a00000000000000000000000000000000000000000000000000000000081526004016115a090614955565b60405180910390fd5b6000610134600086815260200190815260200160002054905034811115611605576040517f08c379a00000000000000000000000000000000000000000000000000000000081526004016115fc906149c1565b60405180910390fd5b6000610131600087815260200190815260200160002060009054906101000a900473ffffffffffffffffffffffffffffffffffffffff16905060008173ffffffffffffffffffffffffffffffffffffffff166116806103cf6116726103e8346127bc90919063ffffffff16565b6127d290919063ffffffff16565b60405161168c906145c0565b60006040518083038185875af1925050503d80600081146116c9576040519150601f19603f3d011682016040523d82523d6000602084013e6116ce565b606091505b5050905080611712576040517f08c379a000000000000000000000000000000000000000000000000000000000815260040161170990614621565b60405180910390fd5b61173a600161013260008a81526020019081526020016000205461250990919063ffffffff16565b61013260008981526020019081526020016000208190555061175f3388600189611b7e565b50505050505050565b6101316020528060005260406000206000915054906101000a900473ffffffffffffffffffffffffffffffffffffffff1681565b600073ffffffffffffffffffffffffffffffffffffffff168273ffffffffffffffffffffffffffffffffffffffff160361180b576040517f08c379a000000000000000000000000000000000000000000000000000000000815260040161180290614a2d565b60405180910390fd5b60005b815181101561185457600082828151811061182c5761182b6146d3565b5b6020026020010151905061184084826127e8565b50808061184c90614731565b91505061180e565b505050565b6101346020528060005260406000206000915090505481565b60606040518060400160405280601581526020017f68747470733a2f2f636f6e6e6563742e636c75622f0000000000000000000000815250905090565b6000606660008473ffffffffffffffffffffffffffffffffffffffff1673ffffffffffffffffffffffffffffffffffffffff16815260200190815260200160002060008373ffffffffffffffffffffffffffffffffffffffff1673ffffffffffffffffffffffffffffffffffffffff16815260200190815260200160002060009054906101000a900460ff16905092915050565b61194b611ee1565b73ffffffffffffffffffffffffffffffffffffffff168573ffffffffffffffffffffffffffffffffffffffff16148061199157506119908561198b611ee1565b6118af565b5b6119d0576040517f08c379a00000000000000000000000000000000000000000000000000000000081526004016119c790614abf565b60405180910390fd5b6119dd85858585856128e3565b5050505050565b6119ec611ee1565b73ffffffffffffffffffffffffffffffffffffffff16611a0a6112be565b73ffffffffffffffffffffffffffffffffffffffff1614611a60576040517f08c379a0000000000000000000000000000000000000000000000000000000008152600401611a579061456f565b60405180910390fd5b600073ffffffffffffffffffffffffffffffffffffffff168173ffffffffffffffffffffffffffffffffffffffff1603611acf576040517f08c379a0000000000000000000000000000000000000000000000000000000008152600401611ac690614b51565b60405180910390fd5b611ad881612443565b50565b60007f01ffc9a7000000000000000000000000000000000000000000000000000000007bffffffffffffffffffffffffffffffffffffffffffffffffffffffff1916827bffffffffffffffffffffffffffffffffffffffffffffffffffffffff1916149050919050565b6000611b5e60016101305461250990919063ffffffff16565b905090565b6101306000815480929190611b7790614731565b9190505550565b600073ffffffffffffffffffffffffffffffffffffffff168473ffffffffffffffffffffffffffffffffffffffff1603611bed576040517f08c379a0000000000000000000000000000000000000000000000000000000008152600401611be490614be3565b60405180910390fd5b6000611bf7611ee1565b9050611c1881600087611c0988612b67565b611c1288612b67565b87612be1565b826065600086815260200190815260200160002060008773ffffffffffffffffffffffffffffffffffffffff1673ffffffffffffffffffffffffffffffffffffffff1681526020019081526020016000206000828254611c789190614c03565b925050819055508473ffffffffffffffffffffffffffffffffffffffff16600073ffffffffffffffffffffffffffffffffffffffff168273ffffffffffffffffffffffffffffffffffffffff167fc3d58168c5ae7397731d063d5bbf3d657854427343f4c083240f7aacaa2d0f628787604051611cf6929190614c59565b60405180910390a4611d0d81600087878787612be9565b5050505050565b60008073ffffffffffffffffffffffffffffffffffffffff16610131600084815260200190815260200160002060009054906101000a900473ffffffffffffffffffffffffffffffffffffffff1673ffffffffffffffffffffffffffffffffffffffff1614159050919050565b606060008203611dc8576040518060400160405280600181526020017f30000000000000000000000000000000000000000000000000000000000000008152509050611edc565b600082905060005b60008214611dfa578080611de390614731565b915050600a82611df39190614cb1565b9150611dd0565b60008167ffffffffffffffff811115611e1657611e1561373a565b5b6040519080825280601f01601f191660200182016040528015611e485781602001600182028036833780820191505090505b5090505b60008514611ed557600182611e619190614ce2565b9150600a85611e709190614d16565b6030611e7c9190614c03565b60f81b818381518110611e9257611e916146d3565b5b60200101907effffffffffffffffffffffffffffffffffffffffffffffffffffffffffffff1916908160001a905350600a85611ece9190614cb1565b9450611e4c565b8093505050505b919050565b600033905090565b8151835114611f2d576040517f08c379a0000000000000000000000000000000000000000000000000000000008152600401611f2490614db9565b60405180910390fd5b600073ffffffffffffffffffffffffffffffffffffffff168473ffffffffffffffffffffffffffffffffffffffff1603611f9c576040517f08c379a0000000000000000000000000000000000000000000000000000000008152600401611f9390614e4b565b60405180910390fd5b6000611fa6611ee1565b9050611fb6818787878787612be1565b60005b845181101561216a576000858281518110611fd757611fd66146d3565b5b602002602001015190506000858381518110611ff657611ff56146d3565b5b6020026020010151905060006065600084815260200190815260200160002060008b73ffffffffffffffffffffffffffffffffffffffff1673ffffffffffffffffffffffffffffffffffffffff16815260200190815260200160002054905081811015612098576040517f08c379a000000000000000000000000000000000000000000000000000000000815260040161208f90614edd565b60405180910390fd5b8181036065600085815260200190815260200160002060008c73ffffffffffffffffffffffffffffffffffffffff1673ffffffffffffffffffffffffffffffffffffffff16815260200190815260200160002081905550816065600085815260200190815260200160002060008b73ffffffffffffffffffffffffffffffffffffffff1673ffffffffffffffffffffffffffffffffffffffff168152602001908152602001600020600082825461214f9190614c03565b925050819055505050508061216390614731565b9050611fb9565b508473ffffffffffffffffffffffffffffffffffffffff168673ffffffffffffffffffffffffffffffffffffffff168273ffffffffffffffffffffffffffffffffffffffff167f4a39dc06d4c0dbc64b70af90fd698a233a518aa5d07e595d983b8c0526c8f7fb87876040516121e1929190614efd565b60405180910390a46121f7818787878787612dc0565b505050505050565b600061222d7f360894a13ba1a3210667c828492db98dca3e2076cc3735a920a3ca505d382bbc60001b612f97565b60000160009054906101000a900473ffffffffffffffffffffffffffffffffffffffff16905090565b61225e611ee1565b73ffffffffffffffffffffffffffffffffffffffff1661227c6112be565b73ffffffffffffffffffffffffffffffffffffffff16146122d2576040517f08c379a00000000000000000000000000000000000000000000000000000000081526004016122c99061456f565b60405180910390fd5b50565b6123017f4910fdfa16fed3260ed0e7147f7cc6da11a60208b5b9406d12a635614ffd914360001b612fa1565b60000160009054906101000a900460ff16156123255761232083612fab565b61243e565b8273ffffffffffffffffffffffffffffffffffffffff166352d1902d6040518163ffffffff1660e01b8152600401602060405180830381865afa92505050801561238d57506040513d601f19601f8201168201806040525081019061238a9190614f60565b60015b6123cc576040517f08c379a00000000000000000000000000000000000000000000000000000000081526004016123c390614fff565b60405180910390fd5b7f360894a13ba1a3210667c828492db98dca3e2076cc3735a920a3ca505d382bbc60001b8114612431576040517f08c379a000000000000000000000000000000000000000000000000000000000815260040161242890615091565b60405180910390fd5b5061243d838383613064565b5b505050565b6000609760009054906101000a900473ffffffffffffffffffffffffffffffffffffffff16905081609760006101000a81548173ffffffffffffffffffffffffffffffffffffffff021916908373ffffffffffffffffffffffffffffffffffffffff1602179055508173ffffffffffffffffffffffffffffffffffffffff168173ffffffffffffffffffffffffffffffffffffffff167f8be0079c531659141344cd1fd0a4f28419497f9722a3daafe3b4186f6b6457e060405160405180910390a35050565b600081836125179190614c03565b905092915050565b8173ffffffffffffffffffffffffffffffffffffffff168373ffffffffffffffffffffffffffffffffffffffff160361258d576040517f08c379a000000000000000000000000000000000000000000000000000000000815260040161258490615123565b60405180910390fd5b80606660008573ffffffffffffffffffffffffffffffffffffffff1673ffffffffffffffffffffffffffffffffffffffff16815260200190815260200160002060008473ffffffffffffffffffffffffffffffffffffffff1673ffffffffffffffffffffffffffffffffffffffff16815260200190815260200160002060006101000a81548160ff0219169083151502179055508173ffffffffffffffffffffffffffffffffffffffff168373ffffffffffffffffffffffffffffffffffffffff167f17307eab39ab6107e8899845ad3d59bd9653f200f220920489ca2b5937696c318360405161267e919061355e565b60405180910390a3505050565b600061269630613090565b15905090565b600060019054906101000a900460ff166126eb576040517f08c379a00000000000000000000000000000000000000000000000000000000081526004016126e2906151b5565b60405180910390fd5b6126f4816130b3565b50565b600060019054906101000a900460ff16612746576040517f08c379a000000000000000000000000000000000000000000000000000000000815260040161273d906151b5565b60405180910390fd5b61274e61310e565b565b600060019054906101000a900460ff1661279f576040517f08c379a0000000000000000000000000000000000000000000000000000000008152600401612796906151b5565b60405180910390fd5b565b8061012f90805190602001906127b8929190613309565b5050565b600081836127ca9190614cb1565b905092915050565b600081836127e091906151d5565b905092915050565b803373ffffffffffffffffffffffffffffffffffffffff16610131600083815260200190815260200160002060009054906101000a900473ffffffffffffffffffffffffffffffffffffffff1673ffffffffffffffffffffffffffffffffffffffff161461288b576040517f08c379a000000000000000000000000000000000000000000000000000000000815260040161288290614857565b60405180910390fd5b82610131600084815260200190815260200160002060006101000a81548173ffffffffffffffffffffffffffffffffffffffff021916908373ffffffffffffffffffffffffffffffffffffffff160217905550505050565b600073ffffffffffffffffffffffffffffffffffffffff168473ffffffffffffffffffffffffffffffffffffffff1603612952576040517f08c379a000000000000000000000000000000000000000000000000000000000815260040161294990614e4b565b60405180910390fd5b600061295c611ee1565b905061297c81878761296d88612b67565b61297688612b67565b87612be1565b60006065600086815260200190815260200160002060008873ffffffffffffffffffffffffffffffffffffffff1673ffffffffffffffffffffffffffffffffffffffff16815260200190815260200160002054905083811015612a14576040517f08c379a0000000000000000000000000000000000000000000000000000000008152600401612a0b90614edd565b60405180910390fd5b8381036065600087815260200190815260200160002060008973ffffffffffffffffffffffffffffffffffffffff1673ffffffffffffffffffffffffffffffffffffffff16815260200190815260200160002081905550836065600087815260200190815260200160002060008873ffffffffffffffffffffffffffffffffffffffff1673ffffffffffffffffffffffffffffffffffffffff1681526020019081526020016000206000828254612acb9190614c03565b925050819055508573ffffffffffffffffffffffffffffffffffffffff168773ffffffffffffffffffffffffffffffffffffffff168373ffffffffffffffffffffffffffffffffffffffff167fc3d58168c5ae7397731d063d5bbf3d657854427343f4c083240f7aacaa2d0f628888604051612b48929190614c59565b60405180910390a4612b5e828888888888612be9565b50505050505050565b60606000600167ffffffffffffffff811115612b8657612b8561373a565b5b604051908082528060200260200182016040528015612bb45781602001602082028036833780820191505090505b5090508281600081518110612bcc57612bcb6146d3565b5b60200260200101818152505080915050919050565b505050505050565b612c088473ffffffffffffffffffffffffffffffffffffffff16613090565b15612db8578373ffffffffffffffffffffffffffffffffffffffff1663f23a6e6187878686866040518663ffffffff1660e01b8152600401612c4e959493929190615284565b6020604051808303816000875af1925050508015612c8a57506040513d601f19601f82011682018060405250810190612c8791906152f3565b60015b612d2f57612c9661532d565b806308c379a003612cf25750612caa61534f565b80612cb55750612cf4565b806040517f08c379a0000000000000000000000000000000000000000000000000000000008152600401612ce991906136eb565b60405180910390fd5b505b6040517f08c379a0000000000000000000000000000000000000000000000000000000008152600401612d2690615451565b60405180910390fd5b63f23a6e6160e01b7bffffffffffffffffffffffffffffffffffffffffffffffffffffffff1916817bffffffffffffffffffffffffffffffffffffffffffffffffffffffff191614612db6576040517f08c379a0000000000000000000000000000000000000000000000000000000008152600401612dad906154e3565b60405180910390fd5b505b505050505050565b612ddf8473ffffffffffffffffffffffffffffffffffffffff16613090565b15612f8f578373ffffffffffffffffffffffffffffffffffffffff1663bc197c8187878686866040518663ffffffff1660e01b8152600401612e25959493929190615503565b6020604051808303816000875af1925050508015612e6157506040513d601f19601f82011682018060405250810190612e5e91906152f3565b60015b612f0657612e6d61532d565b806308c379a003612ec95750612e8161534f565b80612e8c5750612ecb565b806040517f08c379a0000000000000000000000000000000000000000000000000000000008152600401612ec091906136eb565b60405180910390fd5b505b6040517f08c379a0000000000000000000000000000000000000000000000000000000008152600401612efd90615451565b60405180910390fd5b63bc197c8160e01b7bffffffffffffffffffffffffffffffffffffffffffffffffffffffff1916817bffffffffffffffffffffffffffffffffffffffffffffffffffffffff191614612f8d576040517f08c379a0000000000000000000000000000000000000000000000000000000008152600401612f84906154e3565b60405180910390fd5b505b505050505050565b6000819050919050565b6000819050919050565b612fb481613090565b612ff3576040517f08c379a0000000000000000000000000000000000000000000000000000000008152600401612fea906155dd565b60405180910390fd5b806130207f360894a13ba1a3210667c828492db98dca3e2076cc3735a920a3ca505d382bbc60001b612f97565b60000160006101000a81548173ffffffffffffffffffffffffffffffffffffffff021916908373ffffffffffffffffffffffffffffffffffffffff16021790555050565b61306d8361316f565b60008251118061307a5750805b1561308b5761308983836131be565b505b505050565b6000808273ffffffffffffffffffffffffffffffffffffffff163b119050919050565b600060019054906101000a900460ff16613102576040517f08c379a00000000000000000000000000000000000000000000000000000000081526004016130f9906151b5565b60405180910390fd5b61310b816127a1565b50565b600060019054906101000a900460ff1661315d576040517f08c379a0000000000000000000000000000000000000000000000000000000008152600401613154906151b5565b60405180910390fd5b61316d613168611ee1565b612443565b565b61317881612fab565b8073ffffffffffffffffffffffffffffffffffffffff167fbc7cd75a20ee27fd9adebab32041f755214dbc6bffa90cc0225b39da2e5c2d3b60405160405180910390a250565b60606131c983613090565b613208576040517f08c379a00000000000000000000000000000000000000000000000000000000081526004016131ff9061566f565b60405180910390fd5b6000808473ffffffffffffffffffffffffffffffffffffffff168460405161323091906156c0565b600060405180830381855af49150503d806000811461326b576040519150601f19603f3d011682016040523d82523d6000602084013e613270565b606091505b509150915061329882826040518060600160405280602781526020016156d8602791396132a2565b9250505092915050565b606083156132b257829050613302565b6000835111156132c55782518084602001fd5b816040517f08c379a00000000000000000000000000000000000000000000000000000000081526004016132f991906136eb565b60405180910390fd5b9392505050565b82805461331590614185565b90600052602060002090601f016020900481019282613337576000855561337e565b82601f1061335057805160ff191683800117855561337e565b8280016001018555821561337e579182015b8281111561337d578251825591602001919060010190613362565b5b50905061338b919061338f565b5090565b5b808211156133a8576000816000905550600101613390565b5090565b6000604051905090565b600080fd5b600080fd5b600073ffffffffffffffffffffffffffffffffffffffff82169050919050565b60006133eb826133c0565b9050919050565b6133fb816133e0565b811461340657600080fd5b50565b600081359050613418816133f2565b92915050565b6000819050919050565b6134318161341e565b811461343c57600080fd5b50565b60008135905061344e81613428565b92915050565b6000806040838503121561346b5761346a6133b6565b5b600061347985828601613409565b925050602061348a8582860161343f565b9150509250929050565b61349d8161341e565b82525050565b60006020820190506134b86000830184613494565b92915050565b60007fffffffff0000000000000000000000000000000000000000000000000000000082169050919050565b6134f3816134be565b81146134fe57600080fd5b50565b600081359050613510816134ea565b92915050565b60006020828403121561352c5761352b6133b6565b5b600061353a84828501613501565b91505092915050565b60008115159050919050565b61355881613543565b82525050565b6000602082019050613573600083018461354f565b92915050565b600080fd5b600080fd5b600080fd5b60008083601f84011261359e5761359d613579565b5b8235905067ffffffffffffffff8111156135bb576135ba61357e565b5b6020830191508360018202830111156135d7576135d6613583565b5b9250929050565b600080600080606085870312156135f8576135f76133b6565b5b60006136068782880161343f565b94505060206136178782880161343f565b935050604085013567ffffffffffffffff811115613638576136376133bb565b5b61364487828801613588565b925092505092959194509250565b600081519050919050565b600082825260208201905092915050565b60005b8381101561368c578082015181840152602081019050613671565b8381111561369b576000848401525b50505050565b6000601f19601f8301169050919050565b60006136bd82613652565b6136c7818561365d565b93506136d781856020860161366e565b6136e0816136a1565b840191505092915050565b6000602082019050818103600083015261370581846136b2565b905092915050565b600060208284031215613723576137226133b6565b5b60006137318482850161343f565b91505092915050565b7f4e487b7100000000000000000000000000000000000000000000000000000000600052604160045260246000fd5b613772826136a1565b810181811067ffffffffffffffff821117156137915761379061373a565b5b80604052505050565b60006137a46133ac565b90506137b08282613769565b919050565b600067ffffffffffffffff8211156137d0576137cf61373a565b5b602082029050602081019050919050565b60006137f46137ef846137b5565b61379a565b9050808382526020820190506020840283018581111561381757613816613583565b5b835b81811015613840578061382c888261343f565b845260208401935050602081019050613819565b5050509392505050565b600082601f83011261385f5761385e613579565b5b813561386f8482602086016137e1565b91505092915050565b600080fd5b600067ffffffffffffffff8211156138985761389761373a565b5b6138a1826136a1565b9050602081019050919050565b82818337600083830152505050565b60006138d06138cb8461387d565b61379a565b9050828152602081018484840111156138ec576138eb613878565b5b6138f78482856138ae565b509392505050565b600082601f83011261391457613913613579565b5b81356139248482602086016138bd565b91505092915050565b600080600080600060a08688031215613949576139486133b6565b5b600061395788828901613409565b955050602061396888828901613409565b945050604086013567ffffffffffffffff811115613989576139886133bb565b5b6139958882890161384a565b935050606086013567ffffffffffffffff8111156139b6576139b56133bb565b5b6139c28882890161384a565b925050608086013567ffffffffffffffff8111156139e3576139e26133bb565b5b6139ef888289016138ff565b9150509295509295909350565b600060208284031215613a1257613a116133b6565b5b6000613a2084828501613409565b91505092915050565b600067ffffffffffffffff821115613a4457613a4361373a565b5b602082029050602081019050919050565b6000613a68613a6384613a29565b61379a565b90508083825260208201905060208402830185811115613a8b57613a8a613583565b5b835b81811015613ab45780613aa08882613409565b845260208401935050602081019050613a8d565b5050509392505050565b600082601f830112613ad357613ad2613579565b5b8135613ae3848260208601613a55565b91505092915050565b60008060408385031215613b0357613b026133b6565b5b600083013567ffffffffffffffff811115613b2157613b206133bb565b5b613b2d85828601613abe565b925050602083013567ffffffffffffffff811115613b4e57613b4d6133bb565b5b613b5a8582860161384a565b9150509250929050565b600081519050919050565b600082825260208201905092915050565b6000819050602082019050919050565b613b998161341e565b82525050565b6000613bab8383613b90565b60208301905092915050565b6000602082019050919050565b6000613bcf82613b64565b613bd98185613b6f565b9350613be483613b80565b8060005b83811015613c15578151613bfc8882613b9f565b9750613c0783613bb7565b925050600181019050613be8565b5085935050505092915050565b60006020820190508181036000830152613c3c8184613bc4565b905092915050565b60008060408385031215613c5b57613c5a6133b6565b5b6000613c6985828601613409565b925050602083013567ffffffffffffffff811115613c8a57613c896133bb565b5b613c96858286016138ff565b9150509250929050565b6000819050919050565b613cb381613ca0565b82525050565b6000602082019050613cce6000830184613caa565b92915050565b60008060008060808587031215613cee57613ced6133b6565b5b6000613cfc87828801613409565b9450506020613d0d8782880161343f565b9350506040613d1e8782880161343f565b925050606085013567ffffffffffffffff811115613d3f57613d3e6133bb565b5b613d4b878288016138ff565b91505092959194509250565b613d60816133e0565b82525050565b6000602082019050613d7b6000830184613d57565b92915050565b613d8a81613543565b8114613d9557600080fd5b50565b600081359050613da781613d81565b92915050565b60008060408385031215613dc457613dc36133b6565b5b6000613dd285828601613409565b9250506020613de385828601613d98565b9150509250929050565b600067ffffffffffffffff821115613e0857613e0761373a565b5b613e11826136a1565b9050602081019050919050565b6000613e31613e2c84613ded565b61379a565b905082815260208101848484011115613e4d57613e4c613878565b5b613e588482856138ae565b509392505050565b600082601f830112613e7557613e74613579565b5b8135613e85848260208601613e1e565b91505092915050565b600080600060608486031215613ea757613ea66133b6565b5b600084013567ffffffffffffffff811115613ec557613ec46133bb565b5b613ed186828701613e60565b935050602084013567ffffffffffffffff811115613ef257613ef16133bb565b5b613efe86828701613e60565b925050604084013567ffffffffffffffff811115613f1f57613f1e6133bb565b5b613f2b86828701613e60565b9150509250925092565b60008060408385031215613f4c57613f4b6133b6565b5b6000613f5a8582860161343f565b925050602083013567ffffffffffffffff811115613f7b57613f7a6133bb565b5b613f87858286016138ff565b9150509250929050565b60008060408385031215613fa857613fa76133b6565b5b6000613fb685828601613409565b925050602083013567ffffffffffffffff811115613fd757613fd66133bb565b5b613fe38582860161384a565b9150509250929050565b60008060408385031215614004576140036133b6565b5b600061401285828601613409565b925050602061402385828601613409565b9150509250929050565b600080600080600060a08688031215614049576140486133b6565b5b600061405788828901613409565b955050602061406888828901613409565b94505060406140798882890161343f565b935050606061408a8882890161343f565b925050608086013567ffffffffffffffff8111156140ab576140aa6133bb565b5b6140b7888289016138ff565b9150509295509295909350565b7f455243313135353a2062616c616e636520717565727920666f7220746865207a60008201527f65726f2061646472657373000000000000000000000000000000000000000000602082015250565b6000614120602b8361365d565b915061412b826140c4565b604082019050919050565b6000602082019050818103600083015261414f81614113565b9050919050565b7f4e487b7100000000000000000000000000000000000000000000000000000000600052602260045260246000fd5b6000600282049050600182168061419d57607f821691505b6020821081036141b0576141af614156565b5b50919050565b7f4e4f4e4558495354454e545f544f4b454e000000000000000000000000000000600082015250565b60006141ec60118361365d565b91506141f7826141b6565b602082019050919050565b6000602082019050818103600083015261421b816141df565b9050919050565b600081905092915050565b60008190508160005260206000209050919050565b6000815461424f81614185565b6142598186614222565b945060018216600081146142745760018114614285576142b8565b60ff198316865281860193506142b8565b61428e8561422d565b60005b838110156142b057815481890152600182019150602081019050614291565b838801955050505b50505092915050565b60006142cc82613652565b6142d68185614222565b93506142e681856020860161366e565b80840191505092915050565b7f2e6a736f6e000000000000000000000000000000000000000000000000000000600082015250565b6000614328600583614222565b9150614333826142f2565b600582019050919050565b600061434a8285614242565b915061435682846142c1565b91506143618261431b565b91508190509392505050565b7f455243313135353a207472616e736665722063616c6c6572206973206e6f742060008201527f6f776e6572206e6f7220617070726f7665640000000000000000000000000000602082015250565b60006143c960328361365d565b91506143d48261436d565b604082019050919050565b600060208201905081810360008301526143f8816143bc565b9050919050565b7f46756e6374696f6e206d7573742062652063616c6c6564207468726f7567682060008201527f64656c656761746563616c6c0000000000000000000000000000000000000000602082015250565b600061445b602c8361365d565b9150614466826143ff565b604082019050919050565b6000602082019050818103600083015261448a8161444e565b9050919050565b7f46756e6374696f6e206d7573742062652063616c6c6564207468726f7567682060008201527f6163746976652070726f78790000000000000000000000000000000000000000602082015250565b60006144ed602c8361365d565b91506144f882614491565b604082019050919050565b6000602082019050818103600083015261451c816144e0565b9050919050565b7f4f776e61626c653a2063616c6c6572206973206e6f7420746865206f776e6572600082015250565b600061455960208361365d565b915061456482614523565b602082019050919050565b600060208201905081810360008301526145888161454c565b9050919050565b600081905092915050565b50565b60006145aa60008361458f565b91506145b58261459a565b600082019050919050565b60006145cb8261459d565b9150819050919050565b7f4661696c656420746f2073656e64204574686572000000000000000000000000600082015250565b600061460b60148361365d565b9150614616826145d5565b602082019050919050565b6000602082019050818103600083015261463a816145fe565b9050919050565b7f455243313135353a206163636f756e747320616e6420696473206c656e67746860008201527f206d69736d617463680000000000000000000000000000000000000000000000602082015250565b600061469d60298361365d565b91506146a882614641565b604082019050919050565b600060208201905081810360008301526146cc81614690565b9050919050565b7f4e487b7100000000000000000000000000000000000000000000000000000000600052603260045260246000fd5b7f4e487b7100000000000000000000000000000000000000000000000000000000600052601160045260246000fd5b600061473c8261341e565b91507fffffffffffffffffffffffffffffffffffffffffffffffffffffffffffffffff820361476e5761476d614702565b5b600182019050919050565b7f555550535570677261646561626c653a206d757374206e6f742062652063616c60008201527f6c6564207468726f7567682064656c656761746563616c6c0000000000000000602082015250565b60006147d560388361365d565b91506147e082614779565b604082019050919050565b60006020820190508181036000830152614804816147c8565b9050919050565b7f4f4e4c595f43524541544f525f414c4c4f574544000000000000000000000000600082015250565b600061484160148361365d565b915061484c8261480b565b602082019050919050565b6000602082019050818103600083015261487081614834565b9050919050565b7f496e697469616c697a61626c653a20636f6e747261637420697320616c72656160008201527f647920696e697469616c697a6564000000000000000000000000000000000000602082015250565b60006148d3602e8361365d565b91506148de82614877565b604082019050919050565b60006020820190508181036000830152614902816148c6565b9050919050565b7f6d6178206c696d69740000000000000000000000000000000000000000000000600082015250565b600061493f60098361365d565b915061494a82614909565b602082019050919050565b6000602082019050818103600083015261496e81614932565b9050919050565b7f696e7375666669656e7420616d6f756e74000000000000000000000000000000600082015250565b60006149ab60118361365d565b91506149b682614975565b602082019050919050565b600060208201905081810360008301526149da8161499e565b9050919050565b7f494e56414c49445f414444524553530000000000000000000000000000000000600082015250565b6000614a17600f8361365d565b9150614a22826149e1565b602082019050919050565b60006020820190508181036000830152614a4681614a0a565b9050919050565b7f455243313135353a2063616c6c6572206973206e6f74206f776e6572206e6f7260008201527f20617070726f7665640000000000000000000000000000000000000000000000602082015250565b6000614aa960298361365d565b9150614ab482614a4d565b604082019050919050565b60006020820190508181036000830152614ad881614a9c565b9050919050565b7f4f776e61626c653a206e6577206f776e657220697320746865207a65726f206160008201527f6464726573730000000000000000000000000000000000000000000000000000602082015250565b6000614b3b60268361365d565b9150614b4682614adf565b604082019050919050565b60006020820190508181036000830152614b6a81614b2e565b9050919050565b7f455243313135353a206d696e7420746f20746865207a65726f2061646472657360008201527f7300000000000000000000000000000000000000000000000000000000000000602082015250565b6000614bcd60218361365d565b9150614bd882614b71565b604082019050919050565b60006020820190508181036000830152614bfc81614bc0565b9050919050565b6000614c0e8261341e565b9150614c198361341e565b9250827fffffffffffffffffffffffffffffffffffffffffffffffffffffffffffffffff03821115614c4e57614c4d614702565b5b828201905092915050565b6000604082019050614c6e6000830185613494565b614c7b6020830184613494565b9392505050565b7f4e487b7100000000000000000000000000000000000000000000000000000000600052601260045260246000fd5b6000614cbc8261341e565b9150614cc78361341e565b925082614cd757614cd6614c82565b5b828204905092915050565b6000614ced8261341e565b9150614cf88361341e565b925082821015614d0b57614d0a614702565b5b828203905092915050565b6000614d218261341e565b9150614d2c8361341e565b925082614d3c57614d3b614c82565b5b828206905092915050565b7f455243313135353a2069647320616e6420616d6f756e7473206c656e6774682060008201527f6d69736d61746368000000000000000000000000000000000000000000000000602082015250565b6000614da360288361365d565b9150614dae82614d47565b604082019050919050565b60006020820190508181036000830152614dd281614d96565b9050919050565b7f455243313135353a207472616e7366657220746f20746865207a65726f20616460008201527f6472657373000000000000000000000000000000000000000000000000000000602082015250565b6000614e3560258361365d565b9150614e4082614dd9565b604082019050919050565b60006020820190508181036000830152614e6481614e28565b9050919050565b7f455243313135353a20696e73756666696369656e742062616c616e636520666f60008201527f72207472616e7366657200000000000000000000000000000000000000000000602082015250565b6000614ec7602a8361365d565b9150614ed282614e6b565b604082019050919050565b60006020820190508181036000830152614ef681614eba565b9050919050565b60006040820190508181036000830152614f178185613bc4565b90508181036020830152614f2b8184613bc4565b90509392505050565b614f3d81613ca0565b8114614f4857600080fd5b50565b600081519050614f5a81614f34565b92915050565b600060208284031215614f7657614f756133b6565b5b6000614f8484828501614f4b565b91505092915050565b7f45524331393637557067726164653a206e657720696d706c656d656e7461746960008201527f6f6e206973206e6f742055555053000000000000000000000000000000000000602082015250565b6000614fe9602e8361365d565b9150614ff482614f8d565b604082019050919050565b6000602082019050818103600083015261501881614fdc565b9050919050565b7f45524331393637557067726164653a20756e737570706f727465642070726f7860008201527f6961626c65555549440000000000000000000000000000000000000000000000602082015250565b600061507b60298361365d565b91506150868261501f565b604082019050919050565b600060208201905081810360008301526150aa8161506e565b9050919050565b7f455243313135353a2073657474696e6720617070726f76616c2073746174757360008201527f20666f722073656c660000000000000000000000000000000000000000000000602082015250565b600061510d60298361365d565b9150615118826150b1565b604082019050919050565b6000602082019050818103600083015261513c81615100565b9050919050565b7f496e697469616c697a61626c653a20636f6e7472616374206973206e6f74206960008201527f6e697469616c697a696e67000000000000000000000000000000000000000000602082015250565b600061519f602b8361365d565b91506151aa82615143565b604082019050919050565b600060208201905081810360008301526151ce81615192565b9050919050565b60006151e08261341e565b91506151eb8361341e565b9250817fffffffffffffffffffffffffffffffffffffffffffffffffffffffffffffffff048311821515161561522457615223614702565b5b828202905092915050565b600081519050919050565b600082825260208201905092915050565b60006152568261522f565b615260818561523a565b935061527081856020860161366e565b615279816136a1565b840191505092915050565b600060a0820190506152996000830188613d57565b6152a66020830187613d57565b6152b36040830186613494565b6152c06060830185613494565b81810360808301526152d2818461524b565b90509695505050505050565b6000815190506152ed816134ea565b92915050565b600060208284031215615309576153086133b6565b5b6000615317848285016152de565b91505092915050565b60008160e01c9050919050565b600060033d111561534c5760046000803e615349600051615320565b90505b90565b600060443d106153dc576153616133ac565b60043d036004823e80513d602482011167ffffffffffffffff821117156153895750506153dc565b808201805167ffffffffffffffff8111156153a757505050506153dc565b80602083010160043d0385018111156153c45750505050506153dc565b6153d382602001850186613769565b82955050505050505b90565b7f455243313135353a207472616e7366657220746f206e6f6e204552433131353560008201527f526563656976657220696d706c656d656e746572000000000000000000000000602082015250565b600061543b60348361365d565b9150615446826153df565b604082019050919050565b6000602082019050818103600083015261546a8161542e565b9050919050565b7f455243313135353a204552433131353552656365697665722072656a6563746560008201527f6420746f6b656e73000000000000000000000000000000000000000000000000602082015250565b60006154cd60288361365d565b91506154d882615471565b604082019050919050565b600060208201905081810360008301526154fc816154c0565b9050919050565b600060a0820190506155186000830188613d57565b6155256020830187613d57565b81810360408301526155378186613bc4565b9050818103606083015261554b8185613bc4565b9050818103608083015261555f818461524b565b90509695505050505050565b7f455243313936373a206e657720696d706c656d656e746174696f6e206973206e60008201527f6f74206120636f6e747261637400000000000000000000000000000000000000602082015250565b60006155c7602d8361365d565b91506155d28261556b565b604082019050919050565b600060208201905081810360008301526155f6816155ba565b9050919050565b7f416464726573733a2064656c65676174652063616c6c20746f206e6f6e2d636f60008201527f6e74726163740000000000000000000000000000000000000000000000000000602082015250565b600061565960268361365d565b9150615664826155fd565b604082019050919050565b600060208201905081810360008301526156888161564c565b9050919050565b600061569a8261522f565b6156a4818561458f565b93506156b481856020860161366e565b80840191505092915050565b60006156cc828461568f565b91508190509291505056fe416464726573733a206c6f772d6c6576656c2064656c65676174652063616c6c206661696c6564a26469706673582212204e37f98e95f72f8fa0ee922110b8bfbdabc20f2ab0d3e37316ae1f39efceeeac64736f6c634300080d0033",
  "immutableReferences": {
    "617": [
      {
        "length": 32,
        "start": 2915
      },
      {
        "length": 32,
        "start": 3057
      },
      {
        "length": 32,
        "start": 3918
      },
      {
        "length": 32,
        "start": 4060
      },
      {
        "length": 32,
        "start": 4236
      }
    ]
  },
  "source": "// SPDX-License-Identifier: MIT\npragma solidity ^0.8.0;\n\nimport \"@openzeppelin/contracts-upgradeable/token/ERC1155/ERC1155Upgradeable.sol\";\nimport \"@openzeppelin/contracts-upgradeable/access/OwnableUpgradeable.sol\";\nimport \"@openzeppelin/contracts-upgradeable/proxy/utils/Initializable.sol\";\nimport \"@openzeppelin/contracts-upgradeable/proxy/utils/UUPSUpgradeable.sol\";\nimport \"@openzeppelin/contracts-upgradeable/utils/StringsUpgradeable.sol\";\nimport \"@openzeppelin/contracts-upgradeable/utils/math/SafeMathUpgradeable.sol\";\n\ncontract MintableERC1155 is Initializable, ERC1155Upgradeable, OwnableUpgradeable, UUPSUpgradeable {\n    using SafeMathUpgradeable for uint256;\n\n    string public name;\n    string public symbol;\n    string private _uri;\n\n    uint256 private _currentTokenID;\n\n    mapping (uint256 => address) public creators;\n    mapping (uint256 => uint256) public tokenSupply;\n    mapping (uint256 => uint256) public maxTokenSupply;\n    mapping (uint256 => uint256) public tokenPrice;\n\n    modifier creatorOnly(uint256 _id) {\n        require(creators[_id] == msg.sender, \"ONLY_CREATOR_ALLOWED\");\n        _;\n    }\n\n    function initialize(\n        string memory uri_,\n        string memory name_,\n        string memory symbol_\n    ) initializer public {\n        __ERC1155_init(uri_);\n        __Ownable_init();\n        __UUPSUpgradeable_init();\n        name = name_;\n        symbol = symbol_;\n        _currentTokenID = 0;\n        _setURI(uri_);\n    }\n\n    function uri(uint256 _id) public view virtual override returns (string memory) {\n        require(_exists(_id), \"NONEXISTENT_TOKEN\");\n        return string(abi.encodePacked(_uri, StringsUpgradeable.toString(_id), \".json\"));\n    }\n\n    function totalSupply(\n        uint256 _id\n    ) public view returns (uint256) {\n        return tokenSupply[_id];\n    }\n\n    function mintMembership(uint256 _id, bytes memory _data)\n        public\n        payable\n    {\n        require(_exists(_id), \"NONEXISTENT_TOKEN\");\n        uint256 maxSupply = maxTokenSupply[_id];\n        uint256 supply = tokenSupply[_id];\n        require(supply < maxSupply, \"max limit\");\n\n        uint256 price = tokenPrice[_id];\n        require(price <= msg.value, \"insuffient amount\");\n\n        address creator = creators[_id];\n\n        (bool sent, /* bytes memory data */) = creator.call{value: msg.value.div(1000).mul(975)}(\"\");\n        require(sent, \"Failed to send Ether\");\n\n        tokenSupply[_id] = tokenSupply[_id].add(1);\n        _mint(msg.sender, _id, 1, _data);\n    }\n\n    function mint(\n        address _to,\n        uint256 _id,\n        uint256 _quantity,\n        bytes memory _data\n    ) public creatorOnly(_id) {\n        _mint(_to, _id, _quantity, _data);\n        tokenSupply[_id] = tokenSupply[_id].add(_quantity);\n    }\n\n    function create(\n        uint256 _maxTokenSupply,\n        uint256 _tokenPrice,\n        bytes calldata _data\n    ) external returns (uint256) {\n        uint256 _id = _getNextTokenID();\n        _incrementTokenTypeId();\n        creators[_id] = msg.sender;\n        maxTokenSupply[_id] = _maxTokenSupply;\n        tokenPrice[_id] = _tokenPrice;\n\n        _mint(msg.sender, _id, 1, _data);\n        tokenSupply[_id] = 1;\n        return _id;\n    }\n\n    function setCreator(\n        address _to,\n        uint256[] memory _ids\n    ) public {\n        require(_to != address(0), \"INVALID_ADDRESS\");\n        for (uint256 i = 0; i < _ids.length; i++) {\n            uint256 id = _ids[i];\n            _setCreator(_to, id);\n        }\n    }\n\n    function withdraw() public onlyOwner {\n        uint balance = address(this).balance;\n\n        (bool sent, /* bytes memory data */) = msg.sender.call{value: balance}(\"\");\n        require(sent, \"Failed to send Ether\");\n    }\n\n    function contractURI() public pure returns (string memory) {\n        return \"https://connect.club/\";\n    }\n\n    function _authorizeUpgrade(address newImplementation)\n        internal\n        onlyOwner\n        override\n    {}\n\n    function _setCreator(address _to, uint256 _id) internal creatorOnly(_id) {\n        creators[_id] = _to;\n    }\n\n    function _setURI(string memory newuri) internal override virtual {\n        _uri = newuri;\n    }\n\n    function _getNextTokenID() private view returns (uint256) {\n        return _currentTokenID.add(1);\n    }\n\n    function _incrementTokenTypeId() private  {\n        _currentTokenID++;\n    }\n\n    function _exists(\n        uint256 _id\n    ) internal view returns (bool) {\n        return creators[_id] != address(0);\n    }\n}",
  "sourcePath": "/Users/vf/ccPass/contracts/MintableERC1155.sol",
  "compiler": {
    "name": "solc",
    "version": "0.8.13+commit.abaa5c0e.Emscripten.clang"
  },
  "schemaVersion": "3.4.1",
  "updatedAt": "2022-04-12T07:12:12.923Z",
  "networkType": "ethereum",
  "devdoc": {
    "kind": "dev",
    "methods": {
      "balanceOf(address,uint256)": {
        "details": "See {IERC1155-balanceOf}. Requirements: - `account` cannot be the zero address."
      },
      "balanceOfBatch(address[],uint256[])": {
        "details": "See {IERC1155-balanceOfBatch}. Requirements: - `accounts` and `ids` must have the same length."
      },
      "isApprovedForAll(address,address)": {
        "details": "See {IERC1155-isApprovedForAll}."
      },
      "owner()": {
        "details": "Returns the address of the current owner."
      },
      "proxiableUUID()": {
        "details": "Implementation of the ERC1822 {proxiableUUID} function. This returns the storage slot used by the implementation. It is used to validate that the this implementation remains valid after an upgrade. IMPORTANT: A proxy pointing at a proxiable contract should not be considered proxiable itself, because this risks bricking a proxy that upgrades to it, by delegating to itself until out of gas. Thus it is critical that this function revert if invoked through a proxy. This is guaranteed by the `notDelegated` modifier."
      },
      "renounceOwnership()": {
        "details": "Leaves the contract without owner. It will not be possible to call `onlyOwner` functions anymore. Can only be called by the current owner. NOTE: Renouncing ownership will leave the contract without an owner, thereby removing any functionality that is only available to the owner."
      },
      "safeBatchTransferFrom(address,address,uint256[],uint256[],bytes)": {
        "details": "See {IERC1155-safeBatchTransferFrom}."
      },
      "safeTransferFrom(address,address,uint256,uint256,bytes)": {
        "details": "See {IERC1155-safeTransferFrom}."
      },
      "setApprovalForAll(address,bool)": {
        "details": "See {IERC1155-setApprovalForAll}."
      },
      "supportsInterface(bytes4)": {
        "details": "See {IERC165-supportsInterface}."
      },
      "transferOwnership(address)": {
        "details": "Transfers ownership of the contract to a new account (`newOwner`). Can only be called by the current owner."
      },
      "upgradeTo(address)": {
        "details": "Upgrade the implementation of the proxy to `newImplementation`. Calls {_authorizeUpgrade}. Emits an {Upgraded} event."
      },
      "upgradeToAndCall(address,bytes)": {
        "details": "Upgrade the implementation of the proxy to `newImplementation`, and subsequently execute the function call encoded in `data`. Calls {_authorizeUpgrade}. Emits an {Upgraded} event."
      }
    },
    "version": 1
  },
  "userdoc": {
    "kind": "user",
    "methods": {},
    "version": 1
  }
}